:020000040000FA
:10000000307B00100D35000015350000173500005D
:10001000193500001B3500001D35000000000000F0
:100020000000000000000000000000005901000076
:100030002135000000000000D10100000D02000089
:1000400027350000AF2000002735000027350000CD
:100050002735000027350000273500002735000030
:100060002735000027350000273500002735000020
:100070002735000027350000273500002735000010
:100080002735000027350000273500002735000000
:1000900027350000273500002735000027350000F0
:1000A000551D0000273500002735000027350000CA
:1000B00027350000273500002735000027350000D0
:1000C000273500002735000027350000DFF81CD059
:1000D00003F0BCFC04F000F90021034804F050F9DF
:1000E00004F00CF9FEE70000E0900700307B001000
:1000F00080F309887047EFF309807047684680F302
:10010000098804480078C00714BF0220032080F348
:1001100014887047A0900700DFF818C0EFF305833C
:100120001B0618BF6047EFF31483DB0708BF604767
:1001300000DF704727440000DFF818C0EFF30583A5
:100140001B0618BF6047EFF31483DB0708BF604747
:1001500000DF7047BD450000EFF30980816911F8A9
:10016000021CF1B990E80F10E047EFF3098C8CE81E
:100170000700144B93E8060091420FD039B12CE9E7
:10018000F00FC1F828C00CB404F000FD0CBC1A60DC
:10019000D2F828C0BCE8F00F8CF309886FF0020E8B
:1001A000704710B5084A1268914209D8074C54F8B4
:1001B000214090E80F10A047EFF3098C8CE80F0066
:1001C00010BD0000B4000010F8020000F8020000AA
:1001D00004F0AEFB0C4B93E80600914210D0EFF315
:1001E000098C2CE9F00FC1F828C00CB404F0CEFC47
:1001F0000CBC1A60D2F828C0BCE8F00F8CF3098858
:100200006FF0020E70470000B400001004F086FD8D
:10021000E0E7000004F006F904F080FDDAE70000F2
:100220002748006840F400402549C439C1F8C4009B
:100230002448006A40F03040224908620846006CB9
:1002400040F07C0008647047032808D21D49496BC0
:100250001D4A52F8202011431A4A516307E01949F8
:10026000496D194A52F820201143164A51657047CA
:10027000032808D21349496B134A52F820209143AE
:10028000104A516307E00F49496D0F4A52F8202088
:1002900091430C4A5165704710B5044600230BE0AA
:1002A00001209840204018B11846FFF7CDFF02E02A
:1002B0001846FFF7DDFF5B1C082BF1DB10BD0000CB
:1002C000C4C00F4000C00920006B000000BFFEE763
:1002D000012806D0022805D0032804D0042804D120
:1002E00002E003E002E001E000E000BF00BF00BF69
:1002F000FEE770477047000000000000FFFFFFFFAF
:10030000800400BF011EA0F10100FBD170472DE960
:10031000F04106460D460027012D06D1FE48006833
:1003200040F40070FC49086005E0FB48006820F4D8
:100330000070F9490860072422E08020F649C8616E
:100340000120FFF7DDFF012D0CD10120A04030403E
:1003500018B16802F04988610BE04FF40070EE4973
:10036000C86106E0EC484069C0F34020A040384333
:10037000C7B28020E84988610120FFF7C1FF641EF1
:10038000002CDADA3846BDE8F08110B5044640208A
:10039000E149C861702000F048FD002000F045FDF3
:1003A000204600F042FD4020DB49886110BD10B5B9
:1003B00004464020D849C861722000F036FD201262
:1003C00000F033FDE0B200F030FD4020D2498861FA
:1003D00010BD70B505462846FFF7D7FF00BF0024C3
:1003E0004020CD49C861732000F01FFD002000F0BF
:1003F0001CFD002000F019FD04464FF6FF7000EAD6
:100400000424002000F011FD04434020C24988610B
:10041000204670BD10B5C148006820F47C20BF495B
:1004200008600846006C40F42A200864BA48006856
:1004300040F08000B84908604020886180208861D1
:100440004020C86101217020FFF761FF01210020D9
:10045000FFF75DFF4020B0498861C861012173202A
:10046000FFF755FF00210846FFF751FF04464020E3
:10047000A94988610846006820F080000860A74804
:10048000006840F42820A54908600846006C20F464
:100490007F200864204610BD10B5A148006840F4D4
:1004A00080609F49C439C1F8C4000846D0F8A8014B
:1004B00040F40010C1F8A8019848406A20F070602C
:1004C000964948629448D0F8800040F040509249E4
:1004D0008031086088059049C1F898000846006896
:1004E00040F040000860402088618C48006820F49B
:1004F0007C208A4908600846006840F4282008608B
:1005000040F2C71087490860022008614860FFF781
:1005100081FF04461CB90020FFF75BFF0446472C0F
:100520007DD10120804908700021EA2000F0A0FC64
:100530002021EB2000F09CFC0C21EC2000F098FC2A
:10054000C721ED2000F094FC3821E82000F090FC59
:100550001021E92000F08CFC0121F12000F088FC42
:100560001021F22000F084FC0121402000F080FCEA
:100570000021412000F07CFC0021422000F078FCAA
:100580001021432000F074FC0E21442000F070FC88
:100590002421452000F06CFC0421462000F068FC7A
:1005A0005021472000F064FC0221482000F060FC4C
:1005B0001321492000F05CFC19214A2000F058FC6E
:1005C00019214B2000F054FC16214C2000F050FC67
:1005D0001B21502000F04CFC3121512000F048FC40
:1005E0002F21522000F044FC3F21532000F040FC1A
:1005F0003F21542000F03CFC3E21552000F038FC07
:100600002F21562000F034FC7B21572000F030FCD5
:100610000921582000F02CFC0621592000E094E02C
:1006200000F026FC06215A2000F022FC0C215B2061
:1006300000F01EFC1D215C2000F01AFCCC215D2086
:1006400000F016FC1B21084600F012FC01211A20C4
:1006500000F00EFC2F21242000F00AFC5721252059
:1006600000F006FC8821232000F002FC362118202F
:1006700000F0FEFB0121192000F0FAFB002101200F
:1006800000F0F6FB88211F2000F0F2FB1420FFF79A
:1006900037FE82211F2000F0EBFB0520FFF730FE24
:1006A00092211F2000F0E4FB0520FFF729FED22154
:1006B0001F2000F0DDFB0520FFF722FE552117204B
:1006C00000F0D6FB0021084600F0D2FB11212F20BC
:1006D00000F0CEFB0021312000F0CAFB00213220C7
:1006E00000F0C6FB3821282000F0C2FB1420FFF7E1
:1006F00007FE3C21282000F0BBFBA821162000F0BB
:10070000B7FB00210E2000F0B3FB00210F2000F00A
:10071000AFFB0121102009E000C0092000C0024009
:10072000C4C00F40000003400400001000F0A0FB14
:100730004021112000F09CFB0021122000F098FBCA
:100740000021132000F094FB92E10020F949087089
:100750004FF48071012000F08BFB4FF4E061022028
:1007600000F086FB0021042000F082FB40F207210C
:10077000082000F07DFB0021092000F079FB00211A
:100780000A2000F075FB00210C2000F071FB002115
:100790000D2000F06DFB00210F2000F069FB00210F
:1007A000102000F065FB0021112000F061FB00210A
:1007B000122000F05DFB0021132000F059FB1420F3
:1007C000FFF79EFD41F2B021102000F051FB072100
:1007D000112000F04DFB0520FFF792FD40F2BD1106
:1007E000122000F045FB0520FFF78AFD4FF4A051D1
:1007F000132000F03DFB0E21292000F039FB0520DD
:10080000FFF77EFD0021202000F032FB0021212097
:1008100000F02EFBA4F5A840083838B1A0F57C50B4
:10082000183800287ED005287DD150E040F60D31E3
:10083000302000F01DFB41F62311312000F018FBA1
:1008400041F62641322000F013FB42F21C613320B6
:1008500000F00EFB42F21941342000F009FB40F693
:100860000B51352000F004FB41F20601362000F068
:10087000FFFA4FF4C261372000F0FAFA40F2067135
:10088000382000F0F5FA4FF44171392000F0F0FA09
:1008900040F605613A2000F0EBFA40F601613B209A
:1008A00000F0E6FA4FF487713C2000F0E1FA40F2E4
:1008B0000E513D2000F0DCFA40F203413E2000F0F2
:1008C000D7FA40F207613F2000F0D2FA61E0002140
:1008D000302000F0CDFA40F20761312000F0C8FA74
:1008E00040F20531322000F0C3FA0021352000F03B
:1008F000BFFA41F20461362000F0BAFA4FF40171F8
:10090000372000F0B5FA0121382000F0B1FA40F2AA
:100910000771392000F0ACFA00213C2000F0A8FA61
:100920000F2101E005E003E03D2000F0A1FA30E0F6
:1009300000BF0621302000F09BFA40F20111312067
:1009400000F096FA0321322000F092FA4FF48371FE
:10095000352000F08DFA40F60231362000F088FA9A
:1009600040F20231372000F083FA40F2077138205C
:1009700000F07EFA0721392000F07AFA4FF4C061C6
:100980003C2000F075FA40F20B213D2000F070FA97
:1009900000BF00BF0021502000F06AFAEF21512073
:1009A00000F066FA0021522000F062FA40F23F1196
:1009B000532000F05DFAA4F5A840083830B1A0F546
:1009C0007C50183850B1052807D100E000BF4FF423
:1009D0001C51602000F04CFA06E000BF4FF42741A4
:1009E000602000F045FA00BF00BF0121612000F047
:1009F0003FFA00216A2000F03BFA0021802000F03D
:100A000037FA0021812000F033FA0021822000F023
:100A10002FFA0021832000F02BFA0021842000F01F
:100A200027FA0021852000F023FA1021902000F001
:100A30001FFA0021922000F01BFA0321932000F0FE
:100A400017FA4FF48871952000F012FA00219720D0
:100A500000F00EFA0021982000F00AFA41F2380165
:100A6000032000F005FA40F23711072000F000FAE9
:100A70004FF080503049086010BD2DE9F047044622
:100A80000D4616461F462B48007860B3A019A0F10A
:100A90000108E819A0F10109C4F30F21022000F0B8
:100AA000E7F9E1B2032000F0E3F9C8F30F210420D5
:100AB00000F0DEF908F0FF01052000F0D9F9C5F3D8
:100AC0000F21062000F0D4F9E9B2072000F0D0F998
:100AD000C9F30F21082000F0CBF909F0FF0109202C
:100AE00000F0C6F91BE0A9B2502000F0C1F9E819E6
:100AF000401E81B2512000F0BBF9A1B2522000F09B
:100B0000B7F9A019401E81B2532000F0B1F9A9B283
:100B1000202000F0ADF9A1B2212000F0A9F9BDE834
:100B2000F08710B5F0234FF4A07200210846FFF7BC
:100B3000A4FF10BD0400001098C0092070B5044641
:100B40000D46D048007820B3C4F30F21022000F0F6
:100B50008FF9E1B2032000F08BF9C4F30F210420D8
:100B600000F086F9E1B2052000F082F9C5F30F210B
:100B7000062000F07DF9E9B2072000F079F9C5F30D
:100B80000F21082000F074F9E9B2092000F070F993
:100B900007E0A9B2202000F06BF9A1B2212000F0FB
:100BA00067F92220FFF7F1FBB7494888FFF7FFFB01
:100BB00070BDB54948807047B3490880704770B52B
:100BC0000546FFF7AEFF2220FFF7DFFB00F03BF901
:100BD000002403E0284600F042F9641CB4F5963F77
:100BE000F8D300F038F970BD2DE9FF5F8346164653
:100BF00099460E9F4B46324658460199FFF73DFFF6
:100C00002220FFF7C2FB00F01EF9F01D4FEAD00AC8
:100C1000BAF1010F16D1002511E097F800807F1C72
:100C2000002409E028FA04F101F00101964A32F8A3
:100C3000110000F014F9641CB442F3D36D1C4D454F
:100C4000EBD318E0BAF1020F15D1002511E0B7F887
:100C50000080BF1C002409E028FA04F101F0010122
:100C6000894A32F8110000F0FAF8641CB442F3D358
:100C70006D1C4D45EBD300F0EEF8BDE8FF9FF8B5D5
:100C800005460E4617461C46A4F12000C4B217B113
:100C9000012F1CD10CE07D4800EBC400E90006EBFD
:100CA00046020090500008230622FFF79DFF0EE049
:100CB00004EB4400764901EB001005EB4502D1003E
:100CC0000090300118231022FFF78EFF00BF00BFF5
:100CD000F8BD2DE9F04106460D4617461C4607E0D3
:100CE00014F8013B29466D1C3A463046FFF7C7FF12
:100CF00020780028F4D1BDE8F08170B590B00646A8
:100D00000D46FFF70EFF15B1012D1CD10DE000249B
:100D100004E0202001A90855601CC4B2362CF8DB81
:100D2000002101AA601C11540DE0002404E02020E1
:100D300001A90855601CC4B2142CF8DB002101AADB
:100D4000601C115400BF00BF01AB2A460021304691
:100D5000FFF7BFFF10B070BD2DE9F04781468A460E
:100D600014461E46089F07FB04F0870A33462246B6
:100D700051464846FFF781FE2220FFF706FB00F0B0
:100D800062F84FF0000812E000250BE0BD4204D3EA
:100D90003D49088800F063F803E03B49488800F0CB
:100DA0005EF86D1C601EA842F0D208F10108B04543
:100DB000EAD300F050F8BDE8F0872DE9F05F8046F7
:100DC000894614461F46DDF828A0D3463B462246F6
:100DD00049464046FFF751FE2220FFF7D6FA00F0C1
:100DE00032F8781E00FB04F50AE0002605E0A91998
:100DF0003BF8110000F033F8761CA642F7D32D1B08
:100E0000002DF2DA00F027F8BDE8F09F704710B52A
:100E100004462046FFF7B9FA10BD70B504460D46EA
:100E20002946204600F024F870BD0146194881602B
:100E300000BF1848C06800F004000028F9D0154829
:100E40008068C0B2704710B540201349C861722055
:100E5000FFF7EBFF10BD40200F498861704710B5C8
:100E600004462012FFF7E1FFE0B2FFF7DEFF10BDFE
:100E700070B505460C462846FFF787FA2046FFF76F
:100E800096FA70BD040000100000001080520000AF
:100E9000005600000000034000C00920894A126883
:100EA00002F0807242B100BF4FF060421268002A27
:100EB000FAD04FF0604318707047002100E0491CE1
:100EC0008142FCD3704710B54FF6FF70FFF777FEF5
:100ED0000020FFF76EFE7CA3002211461046FFF7AC
:100EE000F8FE7CA3012200211046FFF7F2FE7FA34B
:100EF000012200210220FFF7ECFE82A300220F2135
:100F00000920FFF7E6FE85A300220F210A20FFF744
:100F1000E0FE4FF6E070FFF74FFE83A301220321AE
:100F20000420FFF7D6FE84A3012203210520FFF74A
:100F3000D0FE85A3012203210620FFF7CAFE4FF64B
:100F4000FF70FFF739FE84A300220A211920FFF762
:100F5000C0FE88A3002207211A20FFF7BAFE8C48A2
:100F6000FFF7ABFF10BD70B504464FF6FF70FFF7FB
:100F700026FE4FF6FF70FFF71FFE0020FFF719FE59
:100F800084A3012206210320FFF7A3FE8448FFF774
:100F900094FF002005463BE0042C04D0052C10D023
:100FA000062C2AD11BE07FA3012203210520FFF795
:100FB00090FE01F01AFE7E48FFF77FFF01200546F4
:100FC00025E07CA3012203210520FFF782FE01F02A
:100FD00061FA7748FFF771FF0120054617E079A312
:100FE000012203210520FFF774FE01F013FF704872
:100FF000FFF763FF0120054609E075A301220321E5
:101000000520FFF766FE7448FFF757FF00BF00BFDB
:10101000002DC1D070BDFFF73FFA00F0E7F8FFF7F1
:10102000FFF8FFF750FF0424002600BF00F0F9F896
:10103000012804D008280FD0202827D119E0002645
:1010400066A3012211462046FFF743FE2046FFF724
:101050008AFFFFF738FF34E00826082E08D1042C59
:1010600006D94B48FFF729FF641E4948FFF725FFC3
:1010700027E02026202E08D1062C06D24448FFF770
:101080001CFF641C4248FFF718FF1AE0042515E016
:10109000A54209D15248FFF710FF52A30122114681
:1010A0002046FFF716FE08E04D48FFF706FF4EA367
:1010B000012211462846FFF70CFE6D1C062DE7DDC8
:1010C00000BFB3E7FCED00E054494D4520484552D0
:1010D00045000000202020434F4537313820507212
:1010E0006F6A6563743A20200000000020202020F1
:1010F0004D656469612043656E746572202020200F
:10110000000000002054696D6D79204875792058E1
:1011100075616E204E676F20000000002035303171
:101120003033313032372000204D503320506C6145
:1011300079657220202020002050686F746F20474E
:10114000616C6C65727920002047616D65204D658A
:101150006E7520202020200020557365204A6F796D
:10116000737469636B20546F204E61766967617494
:1011700065200000205072657373204A6F79737484
:1011800069636B20746F2053656C65637420000085
:1011900040420F004C6F6164696E672E2E2E000076
:1011A000809698004D503320506C61796572000034
:1011B00000E1F50550686F746F2047616C6C6572D3
:1011C0007900000047616D65204D656E7500000077
:1011D0004572726F7200000080C3C9016F00000089
:1011E000A08601003E0000002000000012480068B8
:1011F00040F400401049C439C1F8C4000F48C06829
:101200000F4908400D49C8600E48006A20F0F2609E
:101210000C49086270470B49496B792202EA115068
:10122000704700B50023FFF7F6FF0346792020EA58
:101230000303184600BD0000C4C00F4000C00240B8
:10124000FF3CC0FF00C0092035488088B0F5007F12
:1012500038D13348807890BB3148C078012802D01B
:1012600002282ED10AE02E484078812805D12D4849
:1012700000782D4908700120704722E02848407806
:10128000812806D082280AD083280DD0842817D13F
:1012900010E026480088244908800120ECE700205F
:1012A000214908800120E7E74FF480701E4908803B
:1012B0000120E1E704201C4908800120DCE701E06F
:1012C00000BF00BF0020D7E715488088B0F5007F39
:1012D00020D113488078E8B91148C078012802D09D
:1012E000022816D10AE00E484078012805D10E48A0
:1012F00000780C490870012070470AE008484078DF
:10130000012805D108480088084908800120F3E732
:1013100000BF00BF0020EFE70020704700207047AB
:101320002800001038000010D00000100600001047
:101330000020EB490880EB490870EB4908704FF03A
:101340000110EA4908600020E9490860E94908609D
:10135000704710B5E849002000F09CFB10BD10B5A7
:10136000E6488088402801DD402401E0E348848885
:10137000E24822460168802000F0BDFB0446DF48B9
:1013800000682044DD49086008468088001B88808A
:1013900010BD10B5D9480168002000F07BFB044661
:1013A000D64800682044D549086008468088001B5C
:1013B000888010BD10B500221146802000F09BFBF4
:1013C00010BD10B5CE49002000F064FB10BD10B573
:1013D0000446082C6FD2DFE804F06E04F2F16E6E62
:1013E000F0EFFFF7B6FFC4490978C80900F009FB20
:1013F000C148C088C1498880BF480078C0F3411007
:1014000010B1012879D190E0BB4840780C2875D202
:10141000DFE800F0060D8815881D333A41555C81E0
:1014200002F082FB00B9E1E0FFF799FF7BE00020CA
:1014300002F0DAFB00B9D9E0FFF7BCFF73E001204E
:1014400002F0D2FB00B9D1E0FFF7B4FF6BE000BFC0
:10145000A948007800F01F0030B9A748807840F014
:101460008000A049087001E0002001E000BF0120D9
:1014700000B9BBE0FFF79EFF55E002F0F9FA00B9B2
:10148000B4E0FFF76CFF4EE0002000F0E2FA00202D
:101490009A49888047E000BF9748007800F01F0015
:1014A00018B991489549086001E0002001E000BFAB
:1014B000012008B99AE011E1FFF751FF33E002F093
:1014C00009FC00B992E0FFF775FF2CE000BF8A48E5
:1014D000007800F01F00012814D18348007870B113
:1014E0008548007987490978884208DA8248007976
:1014F000854908448149086003E076E012E0002055
:1015000004E001E0002001E000BF012000B96DE02F
:10151000FFF725FF07E002F0B9FC00B966E0FFF72E
:1015200049FF00E062E000BF67E07348007800F028
:101530001F0020B1012803D0022854D12DE055E02E
:101540006D48007938B16C480079012803D06A48A9
:101550000079022820D16848407882280BD004DC2A
:10156000012814D0812816D104E0832804D08428CF
:1015700011D102E000BF00BF00BFFFF765FE28B138
:101580005F485E490860FFF7EAFE2DE003E05C4833
:101590005A49086028E000BF28E057484078822870
:1015A0000FD004DC012818D081281AD108E0832844
:1015B00008D0842815D106E08CE087E06DE01EE0BD
:1015C00000BF00BF00BFFFF7A7FE28B14C484B4942
:1015D0000860FFF7C4FE07E003E049484749086098
:1015E00002E000BF02E001E007E000BF802000F061
:1015F00030FA00204149888000BF00BF6EE03E48BD
:101600000078C00980BB3D48808870B3FFF7C1FEF9
:101610003A48808848BB38480078C0F3411010B180
:10162000012835D100E0E1E73348007800F01F00E1
:1016300020B1012803D0022828D11AE0D6E72E488D
:10164000007938B12C480079012803D02A48007964
:1016500002280DD128484078012808D1FFF734FE30
:1016600020B1FFF7A7FE12E014E015E000BF00BFB5
:10167000BCE721484078012806D1FFF74FFE10B1A2
:10168000FFF798FE03E000BF00BFAFE7AEE700E062
:10169000ACE701E0FFF795FE20E017480078012154
:1016A000B1EBD01F02D1FFF75AFE0EE00D480078D3
:1016B00000F0800048B10B48007800F07F00094935
:1016C00008700846007800F08FF807E0002000F06E
:1016D000CDF903E0802000F0C9F900BF00BF10BDC4
:1016E000080000100A0000100B0000100C00001091
:1016F000100000101400001028000010200000103E
:10170000D0000010180000101900001001460A0750
:10171000D00E01F0800202B1401C70471021FE4A39
:101720001160FE49C1F8100200BFFB490839096881
:1017300001F010010029F8D070471022F64B1A6012
:10174000F64AC2F8100200BFF34A083A126802F0E3
:101750001002002AF8D01022EF4B1A60EF4AC2F8AC
:10176000101200BFEC4A083A126802F01002002A78
:10177000F8D0704710B504460B461020E6490860C3
:101780002046FFF7C3FF4FF4A06141EA0040E34960
:10179000C1F8100200BFE0480838006800F01000EF
:1017A0000028F8D01020DC490860DC48C0F810326E
:1017B00000BFD9480838006800F010000028F8D0B1
:1017C00010BD01463020D44A1060D448C0F8101231
:1017D00000BFD1480838006800F020000028F8D089
:1017E000CD480C300068704710B5044644F08000C6
:1017F0004FF4807242EA0041C948FFF79EFF44F06F
:1018000080004FF4807242EA0041C548FFF795FF1F
:1018100010BD0021C04A403211604021BF4AC2F8C9
:101820004C120121BC4A403211604021BB4AC2F82F
:101830004C1200BFB8490839096801F480710029C9
:10184000F8D04FF0FF31B44A303211606FF04001F0
:10185000B24AC2F83412C911AF4A11600D21121FE9
:101860001160B049AC4A783211604FF0FF31AA4A9A
:101870004C321160A84A843211604021121F11605D
:101880004FF0FF31A44A9C321160A34AA832116084
:10189000A14AB432116007219F4A8C3211600021A5
:1018A000A14A11605160002007E000219F4A42F8E0
:1018B00020109F4A42F82010401C2028F5D3704782
:1018C00000B59C48406820F070509A49486008462E
:1018D000406840F0A05048600846C06896490840FB
:1018E0009449C8600846C068944908439149C86053
:1018F0000846006920F4402008610846006940F469
:10190000802008618E48006840F000408C49C4394E
:10191000C1F8C40012208B49086000BF8948001D2F
:10192000006800F012001228F8D11820012181402F
:101930004209920002F1E022C2F8001100BFFFF755
:1019400068FF0020FFF750FF00BD10B504460CB142
:10195000012000E000204FF4807242EA00417A4802
:10196000FFF7EBFE10BD7047704700B57748007871
:1019700000F0020018B176497348FFF7DEFE00BDA3
:10198000704710B504460CB1012000E000204FF470
:10199000807242EA00416F48FFF7CFFE03205E49A4
:1019A0003C31086000BF5C480838006800F4807073
:1019B0000028F8D04FF480705749086010BD10B56A
:1019C00003469878FFF7A2FE044653483C3000686F
:1019D0000121A14008435149C1F844024E4840301A
:1019E00004609888C1F84C0200BF4B480838006872
:1019F00000F480700028F8D04FF4807046490860E9
:101A000010BD704730B504462046FFF77FFE5249AF
:101A100041EA004589132846FFF78FFE30BD30B5F7
:101A200004462046FFF772FE4B4941EA00454B4908
:101A30002846FFF782FE30BD30B504462046FFF74A
:101A400065FE454941EA004589132846FFF775FEC2
:101A500030BD30B504462046FFF758FE3E4941EA06
:101A600000453B492846FFF768FE30BD30B50446C7
:101A70002046FFF74BFE384941EA004589132846C6
:101A8000FFF75BFE30BD10B5044635492046FFF731
:101A900071FE10BDF0B505460F4605F00F0001219F
:101AA00001EB80001C492031086000BF1A48183043
:101AB000046804F400600028F8D0C4F30904002688
:101AC00005E01648D0F8180238603F1D761CE01C6F
:101AD000B6EB900FF5D300200F492031086041F29A
:101AE0004820284100F0010018B91D492846FFF799
:101AF00041FE2046F0BDF0B506460D46144606F000
:101B00000F00022101EB80000349203108600348E7
:101B1000C0F8244200272AE008C2005000C000504C
:101B20000005D00000000820300000101001001057
:101B3000307B001000C00240CFFFFFCF100000201C
:101B4000C4C00F40F4CF00500005FE000800001094
:101B5000000101000005D800000540000001200040
:101B60000005F2002868FE4908602D1D7F1CE01C5E
:101B7000B7EB900FF6D30020F9490C310860F94912
:101B80003046FFF7F7FD2046F0BD2DE9F0438146D2
:101B90000C46207BC0F340054846FFF7B7FD804662
:101BA0000027F14850F8283017E01F46207B00F04E
:101BB000010088B9ED4850F82500381AEC4951F871
:101BC0002510B0FBF1F6EB4850F825000121B1409B
:101BD0008843E84941F825003B68002BE5D1002601
:101BE00008E0E44850F825100120B040014001B958
:101BF00002E0761C202EF4D300BF202E02D100205C
:101C0000BDE8F083DB4850F825100120B0400143C7
:101C1000D84840F82510D54850F82500D44951F847
:101C2000251006FB01034FB1207B00F0010028B115
:101C30003B60786840F00400786005E0CA4840F8EE
:101C40002830CD4840F82830002001C3207BC0F365
:101C50008000217BC1F3400140EA0110E18840EAA5
:101C60004110A18840EA014001C3206801C3A08956
:101C7000C0F30720000201C30DB1A0681860012065
:101C8000BEE700B503461846FFF740FD012181403D
:101C9000B3486C30016000BD00B503461846FFF73D
:101CA00035FD01218140AE487030016000BD30B586
:101CB00005462846FFF72AFDAF4951F820300BB9F9
:101CC000002030BDDC68C4F343000A2812D2DFE8EC
:101CD00000F00507090B111111110D0F0120F0E79C
:101CE0000220EEE70320ECE70520EAE70420E8E71E
:101CF0000620E6E74FF6FF70E3E730B505462846D5
:101D0000FFF704FD9C4951F8203013B94FF0FF3024
:101D100030BD9C682046FBE730B505462846FFF7F6
:101D2000F5FC954951F8203013B94FF0FF3030BD24
:101D3000DC68200CFBE700B59048FFF7EFFC90480B
:101D4000FFF73FFD03468E48FFF73BFD43EA0023C4
:101D5000184600BD2DE9F04781481C38076807F098
:101D60000800E8B108207E49143908608548FFF76B
:101D7000D5FC8548FFF725FD064606F0100018B192
:101D8000FFF747FD00F006F906F0080038B106F04D
:101D9000040010B1FFF7E7FD01E0FFF7E5FDDCE02F
:101DA00007F0010008B100F0F9F807F0040000287E
:101DB0004ED04FF000097548D0F83082002440E042
:101DC000C84500D13FE00120A04000EA080060B310
:101DD0000120A04040EA090965080120A0406049AF
:101DE0001C31086000BF5E481C38006800F020000D
:101DF0000028F8D05A480838066804F00100A8B94D
:101E000054B906F0040038B16148006820B1604858
:101E100001680120884713E05D4850F8250020B193
:101E20005B4850F825100220884708E0584850F8D1
:101E3000250020B1564850F825100320884700BFE0
:101E4000641C202CBCD300BF042045491439086011
:101E500043487430006800F0010028B340488430E3
:101E6000066802241BE00120A0403040B0B16508A4
:101E700004F0010048B9464850F8250070B14448C4
:101E800050F825100820884708E0414850F8250000
:101E900020B13F4850F8251009208847641C202CA9
:101EA000E1D32F48883006602D487430006800F078
:101EB000020028B32A489030066802241BE0012063
:101EC000A0403040B0B1650804F0010048B9304886
:101ED00050F8250070B12E4850F825100A20884788
:101EE00008E02B4850F8250020B1294850F825106B
:101EF0000B208847641C202CE1D3194894300660DD
:101F000017487430006800F0040028B314489C306F
:101F1000066802241BE00120A0403040B0B16508F3
:101F200004F0010048B91A4850F8250070B118486B
:101F300050F825100C20884708E0154850F8250077
:101F400020B1134850F825100D208847641C202C20
:101F5000E1D30348A030066000BFBDE8F087000071
:101F60001CC200500005FA0010010010046C0000B3
:101F70000C6C000030000010307B00100005F500F4
:101F80000002F5000005FE000002FE0000C0005047
:101F9000146C000010B5FFF7CBF910BD7047704707
:101FA00070471FB5044604F0080010B30320FFF784
:101FB000A4FE2B4909682B4A1288022303FB021155
:101FC000884217D027480088803026490880084674
:101FD0000088C0F309000880084600882249098863
:101FE000401AC0F30900B0F5007F0AD101201F4953
:101FF000087006E000201D4908701A4800881A4938
:1020000008800A20F0B116480068164909880222A3
:1020100002FB010000900420ADF804000020ADF8A0
:10202000060013480068029000200390039820F0F7
:102030000200801C039069460320FFF7A6FD0320E1
:10204000FFF71FFE1FBD704770477047704770470E
:10205000704770477047704770477047704700007F
:10206000440000104A000010480000104C0000100E
:10207000400000107A49096841F08071784A116087
:1020800000BF7749486800F000410029F9D0744941
:10209000096821F08071724A1160F82101EA10216B
:1020A000082202EAD01211446E4A1180704710B51E
:1020B0006D480078002836D06C4800686C49098863
:1020C00030F911306B48008869490988401AC0F31B
:1020D0000904B4F5607F04D165480088401C644958
:1020E0000880802C04D962480088401C6049088020
:1020F0005F480088C0F309005D490880002B05DABD
:102100005D480068C01A5C49086004E05A480068ED
:102110001844594908605948006843431B1403F5A3
:1021200000439BB201E04FF400435548007808B1EA
:102130004FF400434FF6C0701840524908605248AF
:1021400001880068401C504A1060C1F30900D0B9F2
:10215000FFF790FF4D480088B0F5004F03D10020F5
:102160004649086006E0494800883E4909884843D6
:102170004249086040480068030D00203E4908605D
:10218000072B00DD072301204FF04021086010BD20
:102190001CB501F036FB3E48406820F470103C4905
:1021A00048600846406840F41010486039480068AC
:1021B00040F480503749C439C1F8C4003648284932
:1021C00008604FF400402F4908603248E43000684E
:1021D000C0F381000190019830B1012809D0022894
:1021E0000BD003280ED000BF2C4800688008009058
:1021F0000DE02A480068009009E02848006840087F
:10220000009004E025480068C008009000BF00BFAF
:102210004FF4FA410098B0FBF1F0401E4FF040211E
:102220008861032048610120486000BF012181408E
:102230004209920002F1E022C2F8001100BFFFF74C
:102240003FFB0120FFF781FBFEF7EBFF402804D1A5
:102250000020FFF77AFB00201CBD00BFFEE7000056
:10226000004003404E0000104C00001044000010DD
:10227000480000104A000010500000103C00001000
:102280003800001000C00840540000100600001084
:1022900000C00240C4C00F40040E2000A80000107F
:1022A00038B5044601252EE0042C04D0052C0BD0B3
:1022B000062C1BD111E08048F0231A460021009023
:1022C0000846FEF77AFD18E07C48F0231A46002104
:1022D00000900846FEF771FD0FE07948CC23E1221B
:1022E000002100900846FEF768FD06E075A3012274
:1022F00002210420FEF7EDFC00BF00BFFEF791FFB6
:10230000102800D10025012DCED038BD2DE9F04197
:102310000424002601276FE06D48FEF7CEFDFEF78E
:1023200080FF012806D008280ED0102826D02028AB
:1023300046D116E0012667A3012200212046FEF7C0
:10234000C8FC2046BDE8F0810826082E08D1042CE0
:1023500006D95F48FEF7B1FD641E5D48FEF7ADFD8E
:1023600049E02026202E08D1062C06D25848FEF738
:10237000A4FD641C5648FEF7A0FD3CE0002756A3D0
:10238000012206211046FEF7A4FC54A301220021DD
:102390002046FEF79EFC5248FEF78FFD4FF6FF7079
:1023A000FEF70DFC4F48FEF788FD4FA301220521E3
:1023B0000420FEF78EFC4B48FEF77FFD0020C1E7AE
:1023C000042515E0A54209D14948FEF776FD49A349
:1023D000012200212046FEF77CFC08E04448FEF77D
:1023E0006CFD3EA3012200212846FEF772FC6D1C05
:1023F000062DE7DD00BF00BF012F8DD00020A1E733
:1024000010B54FF6FF70FEF7DAFB3648FEF755FDC4
:1024100039A3012203210020FEF75BFC3148FEF7BF
:102420004CFD4FF47840FEF7C7FB37A30122002193
:102430001046FEF74EFC2B48FEF73FFD4FF6FF70AF
:10244000FEF7BAFB32A3012203210420FEF741FC70
:102450002448FEF732FD31A3012203210520FEF7B7
:1024600038FC2048FEF729FD2FA301220321062076
:10247000FEF72FFC30A3012203210820FEF729FCE0
:1024800031A3012205210920FEF723FC1548FEF7A0
:1024900014FD10BD70B5012500BFFFF7B1FF2C483A
:1024A000FEF70BFDFFF732FF04460CB9002070BDAC
:1024B0002046FFF7F5FEF0E7546C0000552E0200B1
:1024C00056F0030050686F746F204572726F72008F
:1024D00040420F006F0000003C00000020000000A0
:1024E00080C3C901C0C62D0045786974696E670054
:1024F000A08601003E0000002050686F746F2047E6
:10250000616C6C65727920004558495400000000E8
:10251000417374726F6E6175740000004261736B79
:10252000657462616C6C00004D434231373030207D
:10253000426F6172640000005269676874204A6FDC
:1025400079737469636B0000546F20457869740077
:102550008096980010B54FF6FF70FEF730FBF7A39A
:10256000012203210020FEF7B4FBF7A3012203217F
:102570000420FEF7AEFBF7A3012203210520FEF79E
:10258000A8FB4FF47840FEF717FBF4A301220321C8
:102590000620FEF79EFB4FF6FF70FEF70DFBF1489D
:1025A000FEF78BFC10BD10B54FF6FF70FEF707FB72
:1025B000E2A3012203210020FEF78BFBEAA3012204
:1025C00000210220FEF785FBECA30122002103205D
:1025D000FEF77FFBEDA3012200210420FEF779FB2B
:1025E000EEA3012202210720FEF773FBEFA30122D5
:1025F00004210820FEF76DFBEE48FEF75EFC002488
:1026000008E0FEF70EFE012804D101244FF6FF700A
:10261000FEF7D5FA002CF4D010BD38B504460D46AF
:10262000E548E64A009052F82510E54A52F82400A1
:1026300032231A46FEF7C1FB38BD38B500242CE022
:10264000002527E004EB4400DE490844405D58289B
:102650000CD1DD48D94A009052F82410D84A52F8DB
:10266000250032231A46FEF7A8FB12E004EB4400D3
:10267000D4490844405D4F280BD1D448CF4A00903C
:1026800052F82410CE4A52F8250032231A46FEF79B
:1026900094FB6D1C032DD5DB641C032CD0DB38BDF3
:1026A0002DE9F0470746884691463C4645464E464A
:1026B0004FF0000A50E0102E35D004DC012E07D078
:1026C000082E3DD10AE0202E14D0402E38D11EE035
:1026D0000026FFF7B2FF4FF0010A3CE0082E07D1B9
:1026E00035B129462046FFF798FFFFF7A6FF6D1E7C
:1026F000002630E0202E08D1022D06D229462046A1
:10270000FFF78BFFFFF799FF6D1C002623E0402E9B
:1027100007D134B129462046FFF77FFFFFF78DFF31
:10272000641E002617E0102E08D1022C06D229467E
:102730002046FFF772FFFFF780FF641C00260AE0C7
:1027400029462046FFF769FFA1A3012200210820A6
:10275000FEF7BFFA00BF00BFBAF1000FABD0BDE873
:10276000F08708B59E4896231A46282100904620F7
:10277000FEF723FB08BD00240025012099490860CD
:1027800000BFFFF7EEFF0DE0FEF74BFD064696A3F8
:10279000012200210920FEF79CFA324629462046F4
:1027A000FFF77EFFF0E770B504464FF6FF70FEF7C7
:1027B00006FA4FF6FF70FEF7FFF90020FEF7F9F971
:1027C0008EA3012206210320FEF783FA8E48FEF72E
:1027D00074FB00251CE0042C02D0052C09D101E07B
:1027E000FFF7C9FFFFF7DFFE7248FEF766FB012522
:1027F0000DE04FF6FF70FEF7E2F984A301220021FD
:102800000520FEF766FA6B48FEF757FB00BF00BFD6
:10281000002DE0D070BD70B50424002600BFFEF787
:1028200000FD012804D0082813D020282BD11DE05A
:1028300000267BA3012211462046FEF74AFA062C09
:1028400001D3012070BD2046FFF7ADFFFFF782FEE8
:1028500034E00826082E08D1042C06D97148FEF76A
:102860002CFB641E6F48FEF728FB27E02026202E55
:1028700008D1062C06D26B48FEF71FFB641C694882
:10288000FEF71BFB1AE0042515E0A54209D16648B6
:10289000FEF713FB65A3012211462046FEF719FA45
:1028A00008E06148FEF709FB61A3012211462846B2
:1028B000FEF70FFA6D1C062DE7DD00BFAFE710B580
:1028C0000124FFF747FEFFF7A6FF5A4908600846B4
:1028D000006870B94FF6FF70FEF771F956A3012238
:1028E00003210520FEF7F5F94748FEF7E6FA012037
:1028F00010BD00BFFCE70021B9E001EB4100314A07
:10290000105C01EB41022F4B1A445278904214D1D3
:1029100001EB41001A461044407801EB41021A4491
:102920009278904209D101EB41001A46105C2028B0
:1029300003D001EB4100105C704783E054696320D1
:1029400054616320546F6500537461727420476151
:102950006D65000052756C65730000004558495460
:1029600000000000C0C62D00312E596F7520666929
:102970007273742063686F6F73650000322E566542
:102980007273696E6720626F74000000332E4765B2
:1029900074203320746F2077696E00005072657365
:1029A00073204A6F79737469636B0000546F20451C
:1029B0007869740080C3C901426B0500780000107B
:1029C0006C00001060000010957F0500E893050082
:1029D00044726177696E672053796D626F6C000095
:1029E0003BA805005C0000105570646174696E6757
:1029F00020506F736974696F6E0000004C6F6164E2
:102A0000696E672E2E2E0000809698005469632010
:102A100054616320546F65204572726F720000002C
:102A20006F00000040420F00A08601003E00000041
:102A300020000000580000102045584954494E47D6
:102A4000200000004948425CC01C405C82420DD11D
:102A50004648C01C425CC01C405C824206D14348D0
:102A6000405C202802D04148405C7047491C032943
:102A7000FFF643AF3D480278007982420BD13B48D4
:102A80000279007A824206D138480078202802D0A4
:102A900036480078E9E735488278007982420CD1DF
:102AA00032480079314A9279904206D12F48807895
:102AB000202802D02D488078D7E72020D5E710B510
:102AC0004FF6FF70FEF77BF8AFF29013012203215F
:102AD0000020FEF7FEF826A3012204210846FEF797
:102AE000F8F825A3012200210920FEF7F2F8284872
:102AF000FEF7E3F9002408E0FEF793FB012804D178
:102B000001244FF6FF70FEF75AF8002CF4D010BDE8
:102B1000F8B504460D46164604EB44001349084434
:102B2000405D202820D104EB440008444655582E2F
:102B30000CD11848184A009052F82510174A52F83C
:102B4000240032231A46FEF738F90DE04F2E0BD140
:102B50001348114A009052F82510104A52F82400E8
:102B600032231A46FEF729F9F8BD704760000010BD
:102B700057494E4E455200005072657373204A6F9C
:102B800079737469636B20746F2045584954000051
:102B9000C0C62D00EF560500780000106C00001034
:102BA000426B050008B54FF6FF70FEF708F81DA34D
:102BB000012203210020FEF78CF81E48C8231A4684
:102BC000322100900846FEF7F8F81BA301220321EA
:102BD0000820FEF77EF81CA3012205210920FEF73C
:102BE00078F81B48FEF769F908BD10B5FFF7DAFF62
:102BF000FFF7CEFA17A3012203210420FEF769F89C
:102C00001748FEF75AF9FEF75EF9012405E0FEF7D2
:102C100008FB402801D1002401E0012CF7D000BFBF
:102C2000002010BD204D503320506C61796572201A
:102C300000000000045806005072657373204A6F4C
:102C400079737469636B0000546F20657869740050
:102C5000C0C62D002045786974696E6720000000A9
:102C600080C3C90110B54FF6FF70FDF7A8FF764885
:102C7000FEF723F975A3012203210020FEF729F8AE
:102C80007148FEF71AF94FF6E070FDF795FF72A351
:102C9000012203210420FEF71CF874A30122032162
:102CA0000520FEF716F84FF47840FDF785FF72A374
:102CB000012203210620FEF70CF84FF6FF70FDF706
:102CC0007BFF6FA300220A211920FEF702F873A3ED
:102CD000002207211A20FDF7FCFF5B48FEF7EDF804
:102CE00010BD70B504464FF6FF70FDF768FF4FF654
:102CF000FF70FDF761FF0020FDF75BFF6EA301226F
:102D000006210320FDF7E5FF6E48FEF7D6F8002503
:102D100029E0042C02D0052C1AD10CE06AA3012270
:102D200003210520FDF7D5FFFFF7C9FD6948FEF730
:102D3000C4F8012516E068A3012203210520FDF750
:102D4000C8FF00F0B7FB6348FEF7B7F8012509E0BC
:102D500064A3012211460520FDF7BBFF5D48FEF785
:102D6000ACF800BF00BF002DD3D070BD70B50424F7
:102D7000002600BFFEF755FA012804D0082813D01A
:102D800020282BD11DE000265AA3012211462046FF
:102D9000FDF79FFF062C01D3012070BD2046FFF7F1
:102DA000A0FFFFF75FFF34E00826082E08D1042CAF
:102DB00006D95148FEF781F8641E4F48FEF77DF8AA
:102DC00027E02026202E08D1062C06D24A48FEF7FE
:102DD00074F8641C4848FEF770F81AE0042515E002
:102DE000A54209D14548FEF768F845A301221146DE
:102DF0002046FDF76EFF08E04048FEF75EF841A36D
:102E0000012211462846FDF764FF6D1C062DE7DD03
:102E100000BFAFE710B50124FFF724FFFFF7A6FFBF
:102E2000044674B94FF6FF70FDF7C9FE36A30122C0
:102E300003210520FDF74DFF2248FEF73EF8012053
:102E400010BD00BFFCE70000C0C62D002047616D2B
:102E500065204D656E7520002054696320546163C0
:102E600020546F65202020200000000020426C616B
:102E7000636B6A61636B2000204558495420000051
:102E800020557365204A6F79737469636B20546FA2
:102E9000204E61766967617465200000205072657C
:102EA0007373204A6F79737469636B20746F205356
:102EB000656C6563742000004C6F6164696E672EF9
:102EC0002E2E000080969800546963205461632080
:102ED000546F650080C3C901426C61636B6A6163B2
:102EE0006B00000047616D65204D656E7520457271
:102EF000726F72006F00000040420F00A086010058
:102F00003E000000200000002045584954494E472B
:102F10002000000010B54FF6FF70FDF750FEF9A33A
:102F2000012203210020FDF7D4FEF9A30122032191
:102F30000420FDF7CEFEF9A3012203210520FDF7B1
:102F4000C8FE4FF47840FDF737FEF6A301220321B7
:102F50000620FDF7BEFE4FF6FF70FDF72DFEF3488D
:102F6000FDF7ABFF10BD10B54FF6FF70FDF727FE64
:102F7000EFA3012203210020FDF7ABFEEFA3012206
:102F800000210220FDF7A5FEF0A30122002103206D
:102F9000FDF79FFEF3A3012200210420FDF799FE17
:102FA000F6A3012202210720FDF793FEF7A30122D9
:102FB00004210820FDF78DFEF648FDF77EFF002472
:102FC00008E0FEF72EF9012804D101244FF6FF7026
:102FD000FDF7F5FD002CF4D010BD10B5EE48FDF75F
:102FE0006CFF4FF6FF70FDF7EAFDC6A30122032137
:102FF0000020FDF76EFEE9A3012203210846FDF73C
:1030000068FEEAA3012203210420FDF762FEEA48DC
:10301000FDF753FF11E0FEF704F920280BD0FEF76F
:1030200000F9402807D0FEF7FCF8082803D0FEF787
:10303000F8F8102801D1012010BDECE710B5DF48E9
:103040000068152806DDDEA3012200210820FDF717
:1030500040FE16E0DF480068152805DCD748006808
:10306000DC490968884206DDDBA301220021082033
:10307000FDF72FFE05E0DBA3012200210820FDF76C
:1030800028FECD48FDF719FF10BD70B5002416E0ED
:10309000042C03DAD64840F824400FE0242C09DA47
:1030A0002046E11704EB91718910891CD04A42F83F
:1030B000241003E00A20CE4941F82400641C342C7B
:1030C000E6DB332412E000F079FC611C90FBF1F2A6
:1030D00001FB1205C64850F8246050F82500C44989
:1030E00041F82400084640F82560641E002CEADC04
:1030F0000020C049086070BD10B5BE480068342883
:1031000001DBFFF7C2FF00F059FC0A2190FBF1F24E
:1031100001FB1200401C10BD10B586B01BE09E489C
:10312000FDF7CBFEFFF7E8FF0446AA4800682044FD
:10313000A84908600846B0A21421036801A800F05D
:103140003DFF9D48FDF7B9FE01AB0122022103209E
:10315000FDF7BFFD00BF9F4800681228DFDB06B007
:1031600010BD10B586B026E0FEF75BF840281DD1F3
:10317000FFF7C2FF04469148006820448F49086069
:103180000846A3A21421036801A800F017FF8A488B
:10319000FDF793FE01AB012202210846FDF799FDE0
:1031A00086480068152800DD06E000BFFEF739F804
:1031B000102800D100E0D7E700BF06B010BD10B561
:1031C0000020044624E04FF6FF70FDF7F8FC4DA305
:1031D000012203210020FDF77CFD92A301220021A2
:1031E0000846FDF776FD95A3012202210846FDF76A
:1031F00070FD95A3012202210320FDF76AFDFFF770
:10320000B0FFFFF789FFFFF719FFFFF7E6FE04465F
:10321000002CD8D010BD70B504464FF6FF70FDF7F6
:10322000CEFC4FF6FF70FDF7C7FC0020FDF7C1FC98
:1032300089A3012206210320FDF74BFD5648FDF727
:103240003CFE002521E0042C02D0052C0ED106E026
:10325000FFF7B5FF4F48FDF730FE012514E0FFF7FB
:1032600082FE4C48FDF729FE01250DE04FF6FF7068
:10327000FDF7A5FC7BA3012200210520FDF729FD18
:103280004448FDF71AFE00BF00BF002DDBD070BD23
:1032900070B50424002600BFFDF7C3FF012804D049
:1032A000082813D020282BD11DE0002671A301226D
:1032B00011462046FDF70DFD062C01D3012070BDFF
:1032C0002046FFF7A8FFFFF725FEF2E00826082EAC
:1032D00008D1042C06D96848FDF7EFFD641E664846
:1032E000FDF7EBFDE5E02026202E08D1062C06D2C6
:1032F0006148FDF7E2FD641C5F48FDF7DEFDD8E0A4
:10330000BCE0000020426C61636B6A61636B20006B
:1033100053746172742047616D65000052756C656D
:10332000730000004558495400000000C0C62D003D
:10333000426C61636B6A61636B000000312E5665FD
:10334000727365204465616C65720000322E4368BB
:103350006F6F736520746F20486974206F72204D01
:1033600069737300332E4F76657220323120697392
:10337000206C6F73732F62757374000050726573E5
:1033800073204A6F79737469636B0000546F204532
:103390007869740080C3C901809698005072657383
:1033A0007320616E7920646972000000746F20439D
:1033B0006F6E74696E756500002D31018C00001010
:1033C000427573743A204465616C65722057696E6A
:1033D0007300000090000010506C617965722057F6
:1033E000696E73004465616C65722057696E730085
:1033F00090010010880000104465616C65722048DF
:10340000616E643A202564202020202020200000C6
:10341000596F75722048616E643A2025642020201F
:10342000202020004C656674204869742D5269671D
:103430006874205374616E6400000000596F7572E7
:103440002048616E643A00004465616C65722048F2
:10345000616E643A000000004C6F6164696E672E13
:103460002E2E0000426C61636B6A61636B204572B3
:10347000726F72006F00000040420F00042515E0DB
:10348000A54209D11948FDF718FD19A301221146DB
:103490002046FDF71EFC08E01448FDF70EFD15A3BD
:1034A000012211462846FDF714FC6D1C062DE7DDB0
:1034B00000BFF1E610B50124FFF72CFDFFF7E8FE91
:1034C0000D4908600846006870B94FF6FF70FDF7B7
:1034D00076FB0AA3012203210520FDF7FAFB0A4827
:1034E000FDF7EBFC012010BD00BFFCE7A08601004A
:1034F0003E000000200000008400001020455849D4
:1035000054494E47200000008096980006488047A6
:1035100006480047FEE7FEE7FEE7FEE7FEE7FEE7B8
:10352000FEE7FEE7FEE7FEE7C9360000CD0000003B
:103530002DE9F047F7480068C0F3016003287DD10A
:10354000F4488430006800F0030030B1012830D026
:10355000022859D003282BD100E000BFED480068B5
:10356000C0F30740441C0221EA488838D0F888009C
:10357000C0F30E00401CA1FB0001E74B4FF0000C14
:10358000A0FB037901FB039100FB0C11224663466B
:10359000384600F0E1F90546DE487C300068C0B2EC
:1035A000441C22460023284600F0D6F9DB49086077
:1035B00056E0D8480068C0F30740441C0221D548B3
:1035C0008838D0F88800C0F30E00401CA1FB001022
:1035D000D34A4FF0000CA1FB027900FB029001FBE3
:1035E0000C0122466346384600F0B6F90546C94844
:1035F0007C300068C0B2441C22460023284600F0FC
:10360000ABF9C64908602BE0C2480068C0F3074028
:10361000441C0221BF488838D0F88800C0F30E004F
:10362000401CA1FB00124FF400400023A1FB0079D5
:1036300002FB009001FB0301224600E011E0384646
:1036400000F08AF90546B3487C300068C0B2441CDB
:1036500022460023284600F07FF9B049086000BFE9
:1036600030E0AC488430006800F0030030B101283D
:1036700010D0022819D0032823D100E000BFA548AC
:103680007C300068C0B2401CA349B1FBF0F0A349F4
:10369000086016E09F487C300068C0B2401CA0491A
:1036A000B1FBF0F09D4908600BE09A487C3000685F
:1036B000C0B2401C4FF40041B1FBF0F097490860E4
:1036C00000BF00BFBDE8F087202096490860914800
:1036D0008838D0F8A00100F0200030B100BF914838
:1036E000006800F040000028F9D0032089497C31AF
:1036F0000860002087498839C1F8A80189490C3140
:103700000860012083498431086087488149091F86
:103710000860AA207F49091D086055200860012023
:103720007C4908390860AA207A49091D086055209B
:1037300078498839C1F88C0000BF7648006800F0ED
:1037400080600028F9D00320724908390860AA2057
:1037500070498839C1F88C0055206E49091D0860F0
:1037600000BF6C48006800F04070B0F1407FF8D1B5
:10377000232068491C310860AA2066498839C1F8AD
:10378000AC0055206349243108600120614918319B
:103790000860AA205F492431086055205D498839B6
:1037A000C1F8AC0000BF5B482030006800F48060C6
:1037B0000028F8D00320574918310860AA2055493D
:1037C0008839C1F8AC00552052492431086000BF47
:1037D00050482030006800F44070B0F5407FF7D1C9
:1037E00052484C493C31086000204A498839C1F8A8
:1037F000C8010846006820F4704040F4804008602A
:10380000704744480068C0F3016003285ED1414816
:103810008430006800F0030030B1012820D0022875
:1038200039D0032851D100E000BF3A480068C0F306
:103830000E00401C410037488838D0F88800C0F39B
:103840000740401CB1FBF0F03349484331497C311B
:103850000968C9B2491CB0FBF1F03549086034E091
:103860002C480068C0F30E00401C410029488838ED
:10387000D0F88800C0F30740401CB1FBF0F02849A5
:10388000484324497C310968C9B2491CB0FBF1F0B6
:103890002749086019E01F480068C0F30E00401C6B
:1038A00041001C488838D0F88800C0F30740401C0D
:1038B000B1FBF0F0C10317487C300068C0B2401C77
:1038C000B1FBF0F01A49086000BF3FE011488430B6
:1038D000006800F0030030B1012810D0022829D080
:1038E000032832D100E000BF0A487C300068C0B233
:1038F000401C0949B1FBF0F00D49086025E005487E
:103900007C300068C0B2401C0549B1FBF0F00849AA
:1039100008601AE088C00F4000093D00A4000010B4
:10392000001BB700A0C10F4063000500DE8728041C
:10393000A800001006480068C0B2401C4FF40041C7
:10394000B1FBF0F00349086000BF00BF7047000002
:1039500004C10F40A80000102DE9F05F05460020CB
:1039600092469B4688460646814640241BE02846F0
:1039700041464746224600F058F853465A46C01A78
:10398000914110D311461846224600F03FF82D1AF7
:1039900067EB01084F4622460120002100F036F86F
:1039A00017EB00094E41201EA4F10104DFDC48465C
:1039B00031462A464346BDE8F09F00000649074AC3
:1039C0000868504343F239021044086040087047C9
:1039D0000149086070470000CC0000106D4EC641E0
:1039E00030B50B46014600202022012409E021FACF
:1039F00002F59D4205D303FA02F5491B04FA02F5CC
:103A00002844151EA2F10102F1DC30BD202A04DB9E
:103A1000203A00FA02F1002070479140C2F12003E1
:103A200020FA03F3194390407047202A04DB203A20
:103A300021FA02F00021704721FA02F3D040C2F1CE
:103A4000200291400843194670470000064C074D7C
:103A500006E0E06840F0010394E80700984710345E
:103A6000AC42F6D3FCF736FBF0900700109107004C
:103A700010B52848007800F01F0010B101283ED191
:103A80003AE02448C078012804D0022807D003284F
:103A90002ED118E02048214C206012232AE0204932
:103AA000002204E0087808B148880144521C1948F3
:103AB00080789042F6D1087808B9002010BD1748E8
:103AC00001604B8816E01749002204E0087808B12D
:103AD00008780144521C0F4880789042F6D108784B
:103AE00008B90020EAE70D4801600068037801E0AA
:103AF0000020E3E700BF04E000BF0020DEE7002075
:103B0000DCE700BF05488088984201D9034CA380B8
:103B10000120D3E728000010206B000020000010D7
:103B2000326B0000A06B00002748007800F01F00F7
:103B300020B1012806D0022841D116E02348244BA9
:103B400018603EE02348007860B11F480079224B9E
:103B50001B78984206DA0020204B188018461C4B30
:103B6000186001E0002070472BE01748007900F052
:103B70008F0101F0800028B101F00F034FF4803075
:103B8000984001E00120884002461248007810B9B0
:103B900001F00F0080B912480068104060B1114870
:103BA0000068104008B1012000E000200B4B188095
:103BB0001846074B186001E00020D4E701E0002020
:103BC000D1E700BF0120CEE7280000100800001058
:103BD000200000100B00001018000010D000001092
:103BE0000C0000101000001070B506463348007835
:103BF00000F01F0020B101281DD0022858D11CE080
:103C00002E484088012813D146B1FDF7B9FE2C4853
:103C1000008840F002002A4908800BE00020FDF7F0
:103C2000AFFE2748008820F002002549088001E007
:103C3000002070BD3EE00020FBE72048007900F046
:103C40008F0404F0800028B104F00F014FF480309D
:103C5000884001E00120A04005461A48007820B3C2
:103C600004F00F0008B3184800682840E8B1134872
:103C70004088C0B946B12046FDF7EBFE1348006806
:103C800028431249086012E011480068284008B132
:103C90000120CEE72046FDF7E9FE0C480068A84366
:103CA0000A49086003E00020C3E70020C1E701E003
:103CB0000020BEE700BF0120BBE700002800001085
:103CC000080000100B0000100C0000101000001085
:103CD000140000102DE9F04100266348007800F040
:103CE0001F0000287ED16048807800287BD05F4D7F
:103CF0007EE06878022804D0042851D0052870D1CD
:103D000050E0687958498978884245D1564880788A
:103D100057490870287957490870002403E00020AB
:103D200055490855641C042CF9D3012414E00120E2
:103D3000A04052490968084010B12046FDF76FFEC7
:103D40004FF48030A0404D490968084018B144F054
:103D50008000FDF764FE641C102CE8D34FF00110C6
:103D6000464908600020464908604649086001202D
:103D7000FDF707FEE87900F0400030B142480088C6
:103D800040F001004049088009E03F48008820F0E9
:103D900001003D49088002E06888054428E020E0F1
:103DA000EE781EE0E6B9A87800F08F0404F08000F9
:103DB00028B104F00F014FF48030884001E0012069
:103DC000A04007462D48006838432C490860284623
:103DD000FDF7F5FD2046FDF715FE2046FDF72CFE0C
:103DE00000BF01E03AE008E000BF2878054400BFCA
:103DF000287800287FF47DAF26E000201C49087059
:103E0000012414E00120A0401C490968084010B1B9
:103E10002046FDF704FE4FF48030A04017490968A2
:103E2000084018B144F08000FDF7F9FD641C102C27
:103E3000E8D34FF0011011490860002010490860D4
:103E400010490860FDF79DFD07488078084909780A
:103E5000884202D00020BDE8F08101E00020FAE7AE
:103E600000BF0120F7E7000028000010326B0000BF
:103E70000B00001018000010190000100C000010BA
:103E80001000001014000010080000102DE9F05F71
:103E90000027B846BB46B9464248007800F01F00EC
:103EA000012879D14048007810B90020BDE8F09F82
:103EB0004FF0000A3D4C6AE06078022804D00428E4
:103EC0000BD005285FD11EE0607937490978884218
:103ED00002D0608804445AE055E0A77894F8038043
:103EE0004FF000092F480079B8420BD12D48807857
:103EF000404507D14FF0010A2D4810F807B00146A0
:103F000001F807803FE027480079B8423AD1A0780D
:103F100000F08F0606F0800028B106F00F014FF484
:103F20008030884001E00120B04005461D4880787F
:103F3000404515D11F48006828431E4908601E48A7
:103F40000068A8431C4908602046FDF738FD30464C
:103F5000FDF758FD3046FDF76FFD49EA050911E010
:103F6000D8450FD109EA050060B912480068A84396
:103F70001049086010480068A8430F49086030469F
:103F8000FDF74DFD00BF00BF2078044400BF20783E
:103F9000002891D102E0FFE7002087E700BF5046EC
:103FA00084E70000280000100B000010326B0000B6
:103FB000190000100C000010100000100FB41CB508
:103FC0000246002007AC00290BD0491ECDE9002194
:103FD000054B6A462146069800F03AF8009A0021FF
:103FE00011701CBC5DF814FBA541000002E008C87C
:103FF000121F08C1002AFAD170477047002001E063
:1040000001C1121F002AFBD1704710B5002A06DA41
:1040100022F00042D21D22F00703102203E0D21C3E
:1040200022F003030C2213B19C188C4201D9012009
:1040300010BD024401448360C0E90021C91AD018B0
:10404000884202D810600246F9E70020106010BDD7
:104050002DE9FF4F89B09B460446002506E0252840
:104060000BD05A460B999047641C6D1C2078002891
:10407000F5D10DB02846BDE8F08F0027B8460122E3
:10408000474900E0074314F8013F203B02FA03F0E0
:104090000842F7D120782E2819D114F8010F47F0E3
:1040A00004072A280ED06FF02F022078A0F13001EB
:1040B00009290CD808EB880102EB410100EB01084B
:1040C000641CF2E70A98641C50F8048B0A9020786C
:1040D0000028CED0642808D0692806D075281ED0C4
:1040E0005A460B9990476D1C58E00A994FF00A09FF
:1040F00001C90A91002802DA40422D2102E0390567
:1041000004D52B218DF82010012103E0F90704D0FC
:104110002021F7E78A4608AE0DE00021FAE70A9968
:104120004FF00A0901C90A91F7E74946FFF758FC21
:10413000303106F8011D0028F7D1ADEB060000F183
:104140002009780701D44FF00108C84502DDA8EB2B
:10415000090000E000208046002706E008A85A4633
:10416000C05D0B9990476D1C7F1C5745F6DB04E042
:1041700030205A460B9990476D1CB8F10001A8F108
:104180000108F5DC05E016F8010B5A460B9990473B
:104190006D1CB9F10001A9F10109F4DC641C65E7AB
:1041A000092801004A68002A06D00A68531C0B60DF
:1041B00010704868401E486070470000084800685A
:1041C000C0010BD507480068C00707D005488038F4
:1041D0000068002802DA04490120087070470000D6
:1041E000FCED00E0800E00E0C80000104FF06042DF
:1041F000D36F002BFCD0036BD367D36F002BFCD0A5
:10420000C07840EA0120A2F87C0070474FF060417E
:10421000CA6F002AFCD081F87C0070470EB580225E
:1042200000B109B110460AE001780129FAD101A9CB
:1042300000F020F8042801D0002000E01020DDE983
:10424000011203B000BD70B50D46040003D012B9D1
:104250002078012801D0802070BD204600F062FA4D
:1042600028B12946204600F030F8002070BD81209A
:1042700070BD000010B504468089002824D06089F4
:1042800004EB800000690860606840B16078022833
:1042900005D10021204600F099FB00F087FB04F1D6
:1042A0000C0000BFD0E85F1F491E8AB2C0E8512F42
:1042B0000029F7D16089401C80B26081E189884281
:1042C00001D100206081042010BD10B500F07EFBFC
:1042D000BDE8104000F06ABBEFF3058008B1822012
:1042E0007047EFF31480C00703D0DFF80CC000DF85
:1042F000704700F09FBE00003550000088B0EFF31B
:10430000058010B1822008B07047EFF3148010F0E0
:104310000301134806D001291BD0022911D003291B
:1043200019D113E008A981F309880078C0070BD0E0
:104330005FF0020080F31488BFF34F8FBFF36F8FDD
:1043400009E00078C00706D10320F3E70078C00732
:1043500001D0FF20D7E7DFF80CC000DFD3E7000073
:10436000A0900700A5500000EFF305820AB1FFF707
:1043700055BFDFF808C000DF704700001151000092
:10438000EFF305820AB100207047EFF31482D207E1
:1043900002D1044A52781AB1DFF80CC000DF70472E
:1043A00000F0D4BEAC0000104D510000DFF80CC08E
:1043B00000DFDFF80CC000DFFEE70000B9510000AD
:1043C000D5510000DFF804C000DF70470D52000037
:1043D000094C4FF0FF3529462068FFF7C5FF02461C
:1043E0000846102AF7D1FFF7EDFF0028F3D0024668
:1043F00008469047EFE70000980000100748016862
:104400004FF0E020416100218161072101610448F2
:10441000016841F07F410160401770479C900700A0
:1044200020ED00E0704750E8001F31B10B6840E814
:104430000032002AF7D108467047BFF32F8FFAE702
:1044400010B568B161B10B3121F003020168446815
:104450000B1A1B1B934205D2084609680029F5D1A7
:10446000002010BD210007D021180368C1E90032E7
:10447000016001F1080010BD4260083010BD00006D
:1044800070B50D46002812D04FF6FF71084C8842D7
:1044900004D222680146104600F0C6FA2068457032
:1044A000044800F0B5F8BDE8704000F081BB70BD75
:1044B000B4000010FC78001070B5194DE8680028B1
:1044C0002CD0A88A401EA882002621E0A06838B11E
:1044D00061684160606810B1A16881606660A66033
:1044E0000F482146183800F0C3FAA08AA8826078E5
:1044F000042804D10B49E08A09880844A0820120DD
:104500006070E068E860E06808B10561E660266117
:10451000A88A002802D1EC68002CD7D170BD000019
:1045200014790010C400001070B504000FD00D4DB8
:10453000A17801262868827891420CD900F0B4FA5B
:10454000286846702046BDE8704000F031BB064840
:1045500000F05EF8F7E766702146BDE8704002485B
:1045600000F086BAB4000010FC78001010B50446C4
:10457000008B084320836278618B062A18D0052AB5
:1045800019D1084217D001EA0002628388432083D0
:10459000204600F0B4FA01206070628B08212046AA
:1045A00000F0A9FA2146BDE81040034800F060BAC7
:1045B00031EA0002EAD010BDFC780010814202D33B
:1045C00042688A4201D80120704702680A60BFF33E
:1045D0005F8F50E8003F0A689A42F6D140E8001227
:1045E000002AF2D10020704768B161B10022083979
:1045F00002E00246006830B18842FAD12AB1006870
:104600001060002070470120704700214160F8E7EA
:104610000146406842684A600B780022022B05D0B0
:10462000012B03D0032B01D04260704743680BB1CC
:104630009960426082607047810700D00020704717
:1046400070B5044600201546207001226270A170EA
:1046500084F824106060A060E06020612062A08285
:10466000E0822083608384F82500E08C18B9054837
:10467000FFF7D9FEE06229462046BDE8704000F011
:1046800011B80000D803001008B1082901D2012098
:1046900070470144091F002201600A604260104611
:1046A0007047000070B5C28C1C4D930802D12A8857
:1046B000C2F38D03C26A02EB8302540700D5121FB6
:1046C0004FF0807442E9021400242646B2F1400201
:1046D00042F82460641C0E2CFAD3C469146282620E
:1046E00001632968C90014D5112B12D94FF0FF318D
:1046F000103B11EB53014FF0CC3305D042F8043C92
:1047000042F8083D491EF9D1C16A121F8A4200D9F8
:104710001360C06A0249016070BD00008C90070000
:10472000A52E5AE2C1898089081A704701220270B9
:10473000002242708270426002814281103982817F
:104740008908C181704700002DE9F04104464068A6
:104750000E464FF0000804F10C05E8B3607801271D
:1047600001283ED0022813D003285CD10846FFF769
:104770005AFE050057D02046FFF74AFF0446294657
:1047800000F0B6F96770204600F0B9F9214621E043
:104790002046FFF73DFF0646002100F0A9F92189D8
:1047A000F06904EB81010861D5E85F0F401C81B21C
:1047B000C5E8501F0028F7D12089401C80B2208115
:1047C000E189884201D1A4F808807770304600F072
:1047D00096F93146174800E00CE0BDE8F04100F0E2
:1047E00047B92046FFF714FF04463246102100F077
:1047F00082F9C7E7A089E189884216D2208904EBB3
:1048000080000661D5E85F0F401C81B2C5E8501FEB
:104810000028F7D12089401C80B22081E18988429C
:1048200001D1A4F80880BDE8F081BDE8F041032083
:10483000FBF74EBDFC78001070B504468089154624
:104840000026C0B3608904EB8000006908606089BD
:10485000401C80B26081E189884200D16681606835
:1048600010B1607802280BD014F10C04D4E85F0F6B
:10487000401E81B2C4E8501F0028F7D1002070BD4F
:104880002046FFF7C5FE0546002100F031F92189D9
:10489000E86904EB810108612089401C80B2208115
:1048A000E189884200D12681284600F028F928466F
:1048B000FFF73AFEE2E7FFE73DB10B4862680168A7
:1048C0002AB1204600F0D4F808E0012070BD6160F4
:1048D00001684E60006884600120607008212846ED
:1048E000FFF7CEFDF1E70000B4000010002814D05F
:1048F000411C13D00C4A4FF6FE7190420CD800EBCD
:104900004002C2EBC0120948036803EBC202521E08
:10491000B2FBF3F0884204D9084670474FF6FF70A7
:10492000704780B27047000000093D00AC9007005E
:1049300070B51B48012102685170006800F0B4F89E
:10494000184D6C7818E000BF05EBC4014868027888
:10495000EAB1012A20D000F0FFF8E878641C844214
:1049600000D100240F48801CD0E84F1F491EC9B257
:10497000C0E8421F002AF7D1A8780028E4D16C7063
:104980000948FFF745FEBDE8704000F011B90989FC
:1049900089B2FFF7EBFDE0E78968FFF7D5FEDCE7BA
:1049A000B400001008780010FC7800100548017869
:1049B00011B101214170704703494FF080500860E8
:1049C00070470000BC00001004ED00E0F0B4154D8D
:1049D000AB1CEE784FEA0507D3E84F2FB24202D165
:1049E000BFF32F8F11E0521CD4B2C3E8424F002A0C
:1049F000F2D100BFD7E84F2F541CB44200D100249D
:104A0000E4B2C7E8434F002BF4D1EB78934205D9C9
:104A100005EBC202C2E90101F0BC7047F0BC022004
:104A2000FBF756BC08780010104A10B5D368ABB13C
:104A300013469B8A03E08CB12246A48A2344D4689F
:104A40008B42F8D3C460D0600261C46804B12061B5
:104A5000591A8182908A401A908210BD0024C46045
:104A6000D060C91A02619182848210BD147900104D
:104A700030B502780023022A03D0012A01D0032A8C
:104A800000D101238C7800E01046426812B195787D
:104A9000A542F9D24A6041601BB102B191608860C1
:104AA00030BD0020FBE7000003494A684260002255
:104AB0008260486070470000FC78001010B5836881
:104AC00004462BB9607801280ED1084B03E09B689F
:104AD00018780028FBD0204600F026F82146BDE8D3
:104AE00010401846FFF7C4BF10BD0000FC7800104E
:104AF000806A01627047806AC0E90812704710B589
:104B0000016900290ED0C268CA60C36800223BB1A7
:104B10008B8A848A23448B82C3681961C26000E057
:104B20008A82026110BD0000816839B142684A6022
:104B30004168002901D0806888607047054906E017
:104B40004A68824202D14068486070471146002995
:104B5000F6D17047FC78001010B5416881B1FFF7BD
:104B600057FD0446FFF7CBFF012060700146204649
:104B7000FFF7BEFF2146BDE810400348FFF778BFAE
:104B80004188491C418010BDFC780010064800682F
:104B9000D0E90A10814203D300680449884202D058
:104BA0000120FBF795BB7047B4000010A52E5AE218
:104BB0000749022248604270064A1278002A05D04E
:104BC00006C98A4202D0C078FFF720BB70470000B8
:104BD000B4000010C800001070B5FFF7EFFA002015
:104BE0000446204A204902E042F82040401C0B883D
:104BF0009842F9D31D48342201881D48FFF705FA71
:104C00001C48008880B240F000421B4801681B48E5
:104C1000FFF7FBF91A48082201881A480068FFF7D5
:104C2000F4F9194DFF20194AE870EC840021284658
:104C3000FFF706FD16480421017044601548017015
:104C4000C4600461848214481549056002206870BC
:104C50001248047044700978C170BDE87040FBF7D9
:104C600048BB00008C78001088900700B4900700C3
:104C7000600200108C900700B8900700D803001065
:104C8000DC900700A0000010C8780010CD020000E2
:104C9000FC78001014790010B4000010087800109F
:104CA000C09007001B4810B5016841F47F01016006
:104CB00000684FF07F4101EA00201649C0431439D3
:104CC000B0FA80F00968C0F10800C1F30221814206
:104CD00000D3481C0F49091F0B686FF08072824097
:104CE00063F317020A60FFF789FB0B49002808608D
:104CF0000EDB00F1E021FF2281F8002400F01F020A
:104D0000012191404009800000F1E020C0F800112D
:104D100010BD000020ED00E0C00000100C4810B5F0
:104D20000268012151700068FFF7BEFEFBF7E2FA4E
:104D300008480168491C0160FFF7BEFB00F072FAE9
:104D40000548FFF765FCBDE81040FFF731BF0000E4
:104D5000B4000010C4000010FC780010002805D03A
:104D6000810702D10178002900D00020704700009F
:104D700030B50B4C0023626805E095688D4204D87D
:104D800013461268491B002AF7D10260816012B1F4
:104D90009568691A91600BB1186030BD606030BDD4
:104DA000AC0000102DE9F0411E46174680460D4626
:104DB00011F0FF0F00D14D1C1848FFF734FB041E03
:104DC00016D0280AE762E084E9B242462046E6614E
:104DD000FFF736FC01251248124905E000EB850279
:104DE00052F8042C32B16D1C0A889542F6D9002085
:104DF000BDE8F081002DFAD000EB850040F8044CAE
:104E00000948E570007818B101212046FFF7EEF956
:104E10002046FFF789FB2846EAE700006002001001
:104E20008C78001088900700C80000102DE9F05F12
:104E3000584DDFF85891DFF8588129684FF0010A82
:104E4000002618B1CA78AB46824243D14E70FBF7B8
:104E500052F929688862FFF799FE2868046A1FE002
:104E60006068C0B12046FFF7D3FB07460021FFF77B
:104E70003FFE3846FFF743FE87F801A03946464813
:104E8000FFF7F6FDE168A4F802A0A760386AE060C9
:104E90003C620C4604E0E0686680A660E66004467A
:104EA000002CDDD12868C27808EB820141F8046C3F
:104EB000C16A3A48FFF782FB2868C66299F8001079
:104EC00011B10021FFF792F935482968FFF776FB09
:104ED0002E6056E03349098888420CD808EB8008D8
:104EE00058F8045C3DB12846FFF71EFE2846FFF740
:104EF00006FE2C6A22E0FF20BDE8F09F6068C0B18A
:104F00002046FFF785FB07460021FFF7F1FD3846F5
:104F1000FFF7F5FD87F801A039461F48FFF7A8FD08
:104F2000E168A4F802A0A760386AE0603C620C4621
:104F300004E0E0686680A660E6600446002CDDD1EF
:104F400048F8046C1548E96AFFF738FBEE6299F8F7
:104F5000000018B100212846FFF748F929461048FB
:104F6000FFF72CFB0C48DBF8001040688B78827848
:104F70009A4209D981F801A00748DBF80010FFF731
:104F800077FD0020FFF7D0FA0020B5E7C800001039
:104F90008C780010B4000010FC780010D8030010CA
:104FA000600200108890070070B51A4D80B11A4A4F
:104FB000128890421FD8194A02EB800050F8044C26
:104FC000CCB1A17084F824102868A04205D014E068
:104FD00028688170286880F824101148406880781B
:104FE000884215D90E482968FFF742FD296801203B
:104FF000487000200AE0FF2070BD2046FFF75EFDEC
:105000006078012804D10648FFF702FBFFF78CFA0D
:10501000002070BDB4000010889007008C7800104C
:10502000FC78001002480068002800D0C078704763
:10503000B400001010B5134C207860B91248400736
:1050400005D1124801681048FFF71EFB08B1852002
:1050500010BDFFF7C1FD0E49FF2009688870207858
:1050600058B900210B4800F041F80B4908600021B5
:105070000A4800F06BF80A490860012020700020FF
:10508000607010BDAC000010E8630010BC90070019
:10509000B4000010D490070098000010C4900700DE
:1050A0009400001070B50F4D687808B1002070BDF5
:1050B0000D4C206890F824100020FFF775FF206841
:1050C000C178FF2903D1816A203181F309886168A1
:1050D00011B9606000202060FFF7E4FD01206870D6
:1050E000E4E70000AC000010B400001010B50400AC
:1050F00005D0216819B1606808B102780AB10020B2
:1051000010BD8900103189B2FFF710FB606810BD37
:105110003EB504000D464FF0800012D021780129E1
:105120000FD12846FFF7E2FB0246204601A9FFF710
:1051300083FB012801D0102003E00DB1402000E0E6
:105140000020DDE9011203B030BD000070B50E464D
:10515000040029D0206838B3606810F1030F23DB06
:10516000032821DCE16829B11048FFF769F905003F
:105170001AD000E000256068E168001D40EA0121C6
:1051800033462A462068FFF70DFE40B1084901EB7F
:105190008000084950F8040C826A516370BD1DB14B
:1051A00029460248FFF720FA002070BDE86300108E
:1051B0008C780010AD43000010B5FFF733FF0028D6
:1051C00004D0034901EB800050F8040C10BD00002E
:1051D0008C78001010B5FFF7C1FD18B1C18C19B162
:1051E000C46A02E0802010BD0024C078FFF71EFED4
:1051F000FF2806D01CB121460348FFF7F5F900202F
:1052000010BD812010BD0000E863001010B5FFF74D
:1052100013FA20B141690A680169104610BD0020E7
:10522000014610BD2DE9F041134E7468002C1CD0CE
:10523000A068124F401E4FF00108A06012E0254602
:1052400024687460002229463868FEF7FCFF10B11C
:105250000420FBF73DF86879012808D085F8048020
:10526000002C02D0A0680028E9D0BDE8F0812846D3
:10527000E968FFF77DFDF3E7AC000010980000102F
:105280000000000000000000040404040400040006
:105290000A0A0A00000000000A0A1F0A1F0A0A0080
:1052A000041E050E140F040003130804021918004D
:1052B00002050502150916000C0C0402000000008E
:1052C000080402020204080002040808080402009C
:1052D0000004150E0E1504000004041F0404000051
:1052E000000000000C0C04020000001F0000000081
:1052F00000000000000C0C00001008040201000077
:105300000E11131519110E000406040404040E00F6
:105310000E11100E01011F001F10080C10110E00BD
:10532000080C0A091F0808001F010F1010110E00B9
:105330001C02010F11110E001F10100804020100C1
:105340000E11110E11110E000E11111E1008070082
:105350000000040004000000000004000404020037
:10536000100804020408100000001F001F000000C5
:1053700002040810080402000E11100C04000400BE
:105380000E11151D0D011E00040A11111F1111002F
:105390000F11110F11110F000E11010101110E005B
:1053A0000F11111111110F001F01010F01011F0039
:1053B0001F01010F010101001E11010119111E0041
:1053C0001111111F111111000E04040404040E0028
:1053D0001C08080808090600110905030509110041
:1053E0000101010101011F00111B1515151111000B
:1053F00011111315191111000E11111111110E00B7
:105400000F11110F010101000E11111115091600E4
:105410000F11110F050911000E11010E10110E00D0
:105420001F150404040404001111111111110E00C0
:1054300011111111110A04001111111515150A008D
:1054400011110A040A11110011110A0404040400C4
:105450001F10080E02011F001E02020202021E009F
:1054600000010204081000001E10101010101E0091
:10547000040A1100000000000000000000001F00EE
:105480000606040800000000000006080E091E00C1
:1054900001010D1311130D0000000E1101110E007A
:1054A000101016191119160000000E111F010E0020
:1054B0000814040E0404040000000E191916100E3E
:1054C00001010D13111111000400060404040E0063
:1054D000080008080809060001010905030509007C
:1054E0000604040404040E0000000B151515150035
:1054F00000000D131111110000000E1111110E000A
:1055000000000D13130D01010000161919161010DB
:1055100000000D130101010000001E010E100F001C
:1055200004041F04041408000000111111191600CE
:1055300000001111110A04000000111115150A00D4
:105540000000110A040A1100000011111E10110EB2
:1055500000001F0804021F000804040204040800DD
:105560000404040004040400020404080404020007
:10557000021508000000000000000000000000000C
:1055800000000C12120C000000000C1E1E0C00008B
:1055900000001E12121E000000001E1E1E1E000033
:1055A00000000C0C121E000000000C0C1E1E00005F
:1055B00000001E120C0C000000001E1E0C0C00004F
:1055C00000001816161800000000181E1E18000013
:1055D0000000061A1A0600000000061E1E06000043
:1055E00000000C12120C000000000C1E1E0C00002B
:1055F00000001E12121E000000001E1E1E1E0000D3
:10560000000000000000000000000000000000009A
:10561000000000000000000000000000000000008A
:10562000000000000000000000000000000000007A
:1056300000008001800180018001800180018001E3
:105640008001800180018001800180010000000054
:105650008001800100000000000000000000000048
:1056600000000000CC00CC00CC00CC00CC00CC0072
:10567000000000000000000000000000000000002A
:10568000000000000000000000000000000000001A
:10569000000000000000000000000000600C600C32
:1056A000600C30063006FE1FFE1F30063807180358
:1056B000FE1FFE1F180318038C018C018C010000D3
:1056C00000008000E003F80F9C0E8C1C8C188C00EE
:1056D0009800F801E007800E801C8C188C189C182C
:1056E000B80CF00FE0038000800000000000000014
:1056F0000000000000000E181B0C110C1106110612
:10570000110311039B018E01C038C06C60446044DA
:10571000304430441844186C0C380000000000007D
:105720000000E001F0033807180618063003F00106
:10573000F000F8009C310E33061E061C061C063FC6
:10574000FC73F021000000000000000000000000D9
:10575000000000000C000C000C000C000C000C0001
:105760000000000000000000000000000000000039
:105770000000000000000000000000000000000029
:105780000000000200038001C000C0006000600053
:105790003000300030003000300030003000300089
:1057A00060006000C000C000800100030002000033
:1057B000000020006000C0008001800100030003A1
:1057C00000060006000600060006000600060006A9
:1057D0000003000380018001C00060002000000081
:1057E000000000000000000000000000C000C00039
:1057F000D806F807E0013003380700000000000079
:105800000000000000000000000000000000000098
:105810000000000000000000000000008001800186
:10582000800180018001FC3FFC3F800180018001FC
:105830008001800100000000000000000000000066
:105840000000000000000000000000000000000058
:105850000000000000000000000000000000000048
:1058600000008001800100010001800000000000B4
:105870000000000000000000000000000000000028
:105880000000000000000000E007E007000000004A
:105890000000000000000000000000000000000008
:1058A00000000000000000000000000000000000F8
:1058B00000000000000000000000000000000000E8
:1058C0000000C000C0000000000000000000000058
:1058D0000000000C000C0006000600060003000398
:1058E00000038003800180018001C000C000C0006F
:1058F00060006000000000000000000000000000E8
:105900000000E003F007380E180C0C180C180C18E7
:105910000C180C180C180C180C180C18180C380E45
:10592000F007E0030000000000000000000000009D
:10593000000000018001C001F00198018801800190
:10594000800180018001800180018001800180014F
:105950008001800100000000000000000000000045
:105960000000E003F80F180C0C180C1800180018B1
:10597000000C000600038001C00060003000180029
:10598000FC1FFC1F000000000000000000000000E1
:105990000000E001F807180E0C0C0C0C000C0006BF
:1059A000C003C007000C001800180C180C18180CC5
:1059B000F807E00300000000000000000000000005
:1059C0000000000C000E000F000F800DC00C600CDA
:1059D000600C300C180C0C0CFC3FFC3F000C000C55
:1059E000000C000C0000000000000000000000009F
:1059F0000000F80FF80F180018000C00EC03FC076B
:105A00001C0E001C0018001800180C181C0C180E96
:105A1000F807E003000000000000000000000000A4
:105A20000000C007F00F381C181818000C00CC0339
:105A3000EC0F3C0E1C1C0C180C180C18181C380E03
:105A4000F007E0030000000000000000000000007C
:105A50000000FC1FFC1F000C000600060003800372
:105A60008001C001C000E0006000600070003000F4
:105A700030003000000000000000000000000000C6
:105A80000000E003F007380E180C180C180C38064C
:105A9000F007F007180C0C180C180C180C18380C20
:105AA000F80FE0030000000000000000000000000C
:105AB0000000E003F007380E1C0C0C180C180C1832
:105AC0001C1C381EF81BE0190018000C000C1C0EE2
:105AD000F807F001000000000000000000000000D6
